S01300004750494F5F4472697665722E7372656317
S11300000C9434000C9449000C9449000C9449005D
S11300100C9449000C9449000C9449000C94490038
S11300200C9449000C9449000C9449000C94490028
S11300300C9449000C9449000C9449000C94490018
S11300400C9449000C9449000C9449000C94490008
S11300500C9449000C9449000C9449000C944900F8
S11300600C9449000C94490011241FBECFEFD8E032
S1130070DEBFCDBF11E0A0E0B1E0E6E7F3E002C0EF
S113008005900D92AC30B107D9F70E944B000C9447
S1130090B9010C940000CF93DF93CDB7DEB7289756
S11300A00FB6F894DEBF0FBECDBF88E091E00E948A
S11300B0B20084E091E00E94B20080E091E00E94EE
S11300C0B20061E088E091E00E94600160E084E0B9
S11300D091E00E94600161E080E091E00E94600193
S11300E01D821E821F8218860BC08D819E81AF8166
S11300F0B8850196A11DB11D8D839E83AF83B887FA
S11301008D819E81AF81B885803A9648A140B10522
S113011060F360E088E091E00E94600161E084E0C7
S113012091E00E94600160E080E091E00E94600143
S113013019821A821B821C820BC089819A81AB812D
S1130140BC810196A11DB11D89839A83AB83BC83B5
S113015089819A81AB81BC81803A9648A140B105DE
S113016060F3AFCFFC0181818130E1F120F0823076
S113017009F46FC008958281813061F424B181E073
S113018090E0008002C0880F991F0A94E2F7822B46
S113019084B90CC024B181E090E0008002C0880FD3
S11301A0991F0A94E2F78095822384B98381813070
S11301B061F425B181E090E0008002C0880F991FAE
S11301C00A94E2F7822B85B9089525B181E090E085
S11301D0008002C0880F991F0A94E2F78095822359
S11301E085B908958281813061F427B181E090E07E
S11301F0008002C0880F991F0A94E2F7822B87B906
S11302000CC027B181E090E0008002C0880F991FE4
S11302100A94E2F78095822387B98381813061F45F
S113022028B181E090E0008002C0880F991F0A94F1
S1130230E2F7822B88B9089528B181E090E000802C
S113024002C0880F991F0A94E2F78095822388B927
S113025008958281813061F42AB181E090E00080C8
S113026002C0880F991F0A94E2F7822B8AB90CC046
S11302702AB181E090E0008002C0880F991F0A949F
S1130280E2F7809582238AB98381813061F42BB1AE
S113029081E090E0008002C0880F991F0A94E2F781
S11302A0822B8BB908952BB181E090E0008002C0CD
S11302B0880F991F0A94E2F7809582238BB90895D9
S11302C0FC0191819130F9F018F09230B9F1089560
S11302D0613061F425B181E090E0008002C0880FB4
S11302E0991F0A94E2F7822B85B9089525B181E01C
S11302F090E0008002C0880F991F0A94E2F780956D
S1130300822385B90895613061F428B181E090E0D9
S1130310008002C0880F991F0A94E2F7822B88B9E3
S1130320089528B181E090E0008002C0880F991FF1
S11303300A94E2F78095822388B90895613061F4C4
S11303402BB181E090E0008002C0880F991F0A94CD
S1130350E2F7822B8BB908952BB181E090E0008005
S113036002C0880F991F0A94E2F7809582238BB903
S10903700895F894FFCF8C
S10F03760202010001010101000001006D
S9030000FC
